:100000000A128A11FC2F00308A000408840A820731
:100010000034C034F934A434B03499349234823486
:06002000F8348034903436
:100E1600770878040319102F112F3E2F0130FB009D
:100E26001D2F01300310F70DF80DFF3E031D152F82
:100E36000130FB07F81F202F212F142F78087A0284
:100E4600031D272F77087902031C2A2F2B2F312FFA
:100E56007708F9027808031CFA03FA020130031036
:100E6600F80CF70CFF3E031D322F0130FB02031D69
:100E76003D2F3E2F212F7A08F8007908F700080049
:100E8600F401F5017008710403194A2F4B2F802FC6
:100E96000130F600572F01300310F00DF10DFF3E23
:100EA600031D4F2F0130F607F11F5A2F5B2F4E2FD0
:100EB60001300310F40DF50DFF3E031D5C2F710884
:100EC6007302031D682F70087202031C6B2F6C2FB0
:100ED600732F7008F2027108031CF303F3027414F3
:100EE60001300310F10CF00CFF3E031D742F01308E
:100EF600F602031D7F2F802F5B2F7508F100740803
:100F0600F000080083160313860188018312031379
:100F1600860188019014CF309005901110148F012E
:100F26008E010F08FD000E08FC000A30F7000030A5
:100F3600F8007D08FA007C08F9000A128A110B27CE
:100F46000A128A117708013E84000A128A110320C8
:100F56000A128A118312031388000A30F000003047
:100F6600F1007D08F3007C08F2000A128A1143277B
:100F76000A128A1170087104031DC22FC32FC82FCD
:100F8600FF30831203138600ED2F0A30F70000307E
:100F9600F8000A30F0000030F1007D08F3007C080C
:100FA600F2000A128A1143270A128A117108FA00FE
:100FB6007008F9000A128A110B270A128A1177089B
:100FC600013E84000A128A1103200A128A11831232
:100FD6000313860000307D02643003197C02031C73
:100FE600F52FF62F942F8F018E01942F0A128A1156
:0A0FF600002883010A128A11852FDA
:04400E00F220FF3F5E
:00000001FF
