:100000000A128A11FC2F00308A000408840A820731
:100010000034C034F934A434B03499349234823486
:06002000F8348034903436
:100CB6008312031320088800220887002408860070
:100CC600080083160313860187018801FF3083120B
:100CD60003138600FF308700FF3088008316031356
:100CE60081160112811583120313810183120313E6
:100CF60001080A128A1144270A128A110A128A1155
:100D06005B260A128A11792E0A128A110028FD0121
:100D1600FB1F8E2E8F2E962EFA09FB09FA0A03194F
:100D2600FB0A0130FD00F91F992E9A2E9F2EF80915
:100D3600F909F80A0319F90A780879040319A42E9F
:100D4600A52ED22E0130FC00B12E01300310F80D75
:100D5600F90DFF3E031DA92E0130FC07F91FB42E25
:100D6600B52EA82E79087B02031DBB2E78087A02C1
:100D7600031CBE2EBF2EC52E7808FA027908031C66
:100D8600FB03FB0201300310F90CF80CFF3E031DB8
:100D9600C62E0130FC02031DD12ED22EB52E7D08A3
:100DA6000319D62ED72EDC2EFA09FB09FA0A0319E7
:100DB600FB0A7B08F9007A08F8000800F501F11F24
:100DC600E52EE62EED2EF009F109F00A0319F10AD7
:100DD6000130F500F31FF02EF12EF82EF209F3097B
:100DE600F20A0319F30A0130F506F601F701700855
:100DF60071040319FF2E002F352F0130F4000C2F3C
:100E060001300310F00DF10DFF3E031D042F0130DC
:100E1600F407F11F0F2F102F032F01300310F60DCB
:100E2600F70DFF3E031D112F71087302031D1D2FC1
:100E360070087202031C202F212F282F7008F2023F
:100E46007108031CF303F302761401300310F10C4E
:100E5600F00CFF3E031D292F0130F402031D342F31
:100E6600352F102F75080319392F3A2F3F2FF60902
:100E7600F709F60A0319F70A7708F1007608F00071
:100E8600080083120313AA000A30F8000030F900A4
:100E96002A08A600A7012608FA002708FB000A125E
:100EA6008A118A260A128A117808013E84000A12DB
:100EB6008A1103200A128A1183120313A800A901BA
:100EC6002808A0002908A1000A30F8000030F9001F
:100ED6000A30F0000030F1002A08A600A701260813
:100EE600F2002708F3000A128A11E1260A128A1173
:100EF6007108FB007008FA000A128A118A260A1283
:100F06008A117808013E84000A128A1103200A1207
:100F16008A1183120313A800A9012808A200290830
:100F2600A3000A30F8000030F9006430F000003009
:100F3600F1002A08A600A7012608F2002708F300F8
:100F46000A128A11E1260A128A117108FB0070083A
:100F5600FA000A128A118A260A128A117808013EB4
:100F660084000A128A1103200A128A1183120313BB
:100F7600A800A9012808A4002908A5006430F000EB
:100F86000030F1002A08A600A7012608F20027086B
:100F9600F3000A128A11E1260A128A1170087104F6
:100FA600031DD62FD72FDD2FFF3083120313A40086
:100FB6000030A5000A30F0000030F1008312031360
:100FC6002A08A600A7012608F2002708F3000A123D
:100FD6008A11E1260A128A1170087104031DF42F82
:100FE600F52FFB2FFF3083120313A2000030A3005E
:0A0FF600080083010A128A11642E1C
:04400E00F220FF3F5E
:00000001FF
